0000011110DAF   0001112018110820181109123552 AVID4 ADVENTURE INC                                                                                                                                                                                          
0000021120DTL0010000000000000000000 02532445       00000000100001                                                                                                                                                                                         
00000313511107    00      053000000124500007916    01414721******9379      0000                                                                                                                                                                           
0000032352VISN    831130510054        0001245000000004  0C   1     000000000N                                                                                                                                                                             
0000033353220      840 08     0002438D        0000000  0                                                                                                                                                                                                  
00000413511107    00      05300000001490004006B    01548897******1496      0000                                                                                                                                                                           
0000042352MCRD    831140624901        0000149000000004   C   1     000000000N                                                                                                                                                                             
0000043353RP       840 08     0000314DTrakDt  0000046+ 0                                                                                                                                                                                                  
00000513511107    00      053000000022400007420    01449547******4746      0000                                                                                                                                                                           
0000052352VISN    831141898054        0000224000000004  0C   1     000000000N                                                                                                                                                                             
0000053353220      840 08     0000447D        0000000  0                                                                                                                                                                                                  
000006118000001000003000161800000000000000000000000000000161800D0000003                                                                                                                                                                                   
0000071170RECON                                                                                                                                                                                                                                           
0000081371ST110800001109TCF001    000000000000000 00000161800C000000000C                                                                                                                                                                                  
000009137300000146900C00000014900C00000000000CN00000000000CN00000000000C00000000000C00000000000C00000000000C 00000000000D00000000000D00000000000D                                                                                                         
000010137500000000000C00000000000C00000000000D00000161800C                                                                                                                                                                                                
0000111371DV110800001109TCF001                    00000161800C000000000C                                                                                                                                                                                  
000012137300000146900C00000014900C00000000000CN00000000000CN00000000000C00000000000C00000000000C00000000000C 00000000000D00000000000D00000000000D                                                                                                         
000013137500000000000C00000000000C00000000000C00000161800C                                                                                                                                                                                                
0000141371CH110800001109TCF                       00000161800C000000000C                                                                                                                                                                                  
000015137300000146900C00000014900C00000000000CN00000000000CN00000000000C00000000000C00000000000C00000000000C 00000000000D00000000000D00000000000D                                                                                                         
000016137500000000000C00000000000C00000000000C00000161800C                                                                                                                                                                                                

0000181179RECON   0000003                                                                                                                                                                                                                                 
00001911900000100002500000300000161800000000000000000000000000000161800D                                                                                                                                                                                  
